:020000001028C6
:10000800FE00030EF3000408F4000A08F50083124A
:1000180003137F08F60019281128F901FA01FB01DA
:10002800FC01FD01CD0183016229051C1F288312F3
:100038000313CD14222883120313CD108B190B1C24
:1000480027280B10D3280B1A8B1CB1280310051D69
:100058000314031C332883120313CD153628831287
:100068000313CD110519AE288516E830F7000330C3
:10007800F8007808803AFF0080307F02031D462888
:1000880001307702031C67288312031305196728B8
:100098000230F2004530F100A930F000F00B522890
:1000A800F10B5228F20B5228592883120313851E8C
:1000B8005F288512602885160C30F7070318F80AA0
:1000C800FE30F8073D28831203130519AE280230C5
:1000D800CB000030CC0085120330F2008A30F100EA
:1000E8005630F000F00B7628F10B7628F20B7628C4
:1000F8007D28E830F7000330F8007808803AFF00E0
:1001080080307F02031D8A2801307702031CA6284D
:10011800831203130519A628A330F1005530F00007
:10012800F00B9428F10B942883120313851E9E2844
:1001380085129F2885160630F7070318F80AFF303E
:10014800F8078128831203130519AE280130CB0064
:100158000030CC0085128B10D3288B1A0B1DD328A6
:100168009E3081000130F9070318FA0A0030FA07B7
:10017800051CD2287A08803AFF0080307F02031DD0
:10018800C72815307902031CD22883120313851E51
:10019800CF288512D0288516F901FA010B117608A7
:1001A80083120313FF0075088A0074088400730E15
:1001B8008300FE0E7E0E0900831203130516C90183
:1001C800CA014A08803AC2004108803A4202031D27
:1001D800EF284008490203185A2983120313C7015C
:1001E800C8014808803AFF0083307F02031DFE28BB
:1001F800E830470203184C29831203130518080036
:1002080002304B064C0403194C29851E0D29851212
:100218000E2985164A08803AFF0083307F02031DA5
:1002280017290D304902031C302964308312031347
:10023800C5000030C6004130C300EE30C200C20B1A
:100248002329C30B23290000643083120313C70733
:100258000318C80A00304A29F43083120313C50072
:100268000130C6000230C4004530C300A930C200C6
:10027800C20B3C29C30B3C29C40B3C294329F4304D
:1002880083120313C7070318C80A0130C807F528E3
:100298000230831203134B064C0403195A29013008
:1002A800C9070318CA0A0030CA07E52802308312B2
:1002B8000313CB000030CC0005120800831203138F
:1002C800CD018B13C921DF21B921D921A9218B1790
:1002D800023083120313CB000030CC00051C7929AF
:1002E8000330CB000030CC000516051CA6290130D0
:1002F8004B064C040319782902304B064C04031DA5
:1003080078290512792901304B064C04031D9029E0
:100318000330CB000030CC0002304B064C04031DE8
:10032800972905129E298B128430C0000330C10022
:10033800E0208B1683120313051CA6290130CB007D
:100348000030CC00051879298729831603138112F8
:1003580001128111073081049E308312031381003A
:10036800F901FA010B118B16080083160313811388
:10037800FF309700FF3095003F30850005141510B9
:100388000515151505128512080087308316031305
:1003980081008312031318108B018316031396012F
:1003A80007308312031399000800831603130113FF
:1003B8008B100B1608005030831603138F000800AB
:02400E0004F1BB
:00000001FF
